{"abi":[{"type":"constructor","inputs":[{"name":"fee","type":"uint256","internalType":"uint256"}],"stateMutability":"nonpayable"},{"type":"function","name":"addLiquidity","inputs":[{"name":"liquidityDelta","type":"int256","internalType":"int256"},{"name":"tickLower","type":"int24","internalType":"int24"},{"name":"tickUpper","type":"int24","internalType":"int24"}],"outputs":[],"stateMutability":"nonpayable"},{"type":"function","name":"poolKey","inputs":[],"outputs":[{"name":"currency0","type":"address","internalType":"Currency"},{"name":"currency1","type":"address","internalType":"Currency"},{"name":"fee","type":"uint24","internalType":"uint24"},{"name":"tickSpacing","type":"int24","internalType":"int24"},{"name":"hooks","type":"address","internalType":"contract IHooks"}],"stateMutability":"view"},{"type":"function","name":"setPool","inputs":[{"name":"poolFee","type":"uint24","internalType":"uint24"},{"name":"tickSpacing","type":"int24","internalType":"int24"},{"name":"hooks","type":"address","internalType":"contract IHooks"},{"name":"sqrtPriceX96","type":"uint160","internalType":"uint160"},{"name":"hookData","type":"bytes","internalType":"bytes"}],"outputs":[],"stateMutability":"nonpayable"}],"bytecode":{"object":"0x610100604052348015610010575f80fd5b506040516181e73803806181e783398101604081905261002f916101f6565b8060405161003c906101cf565b908152602001604051809103905ff08015801561005b573d5f803e3d5ffd5b506001600160a01b03166080819052604051610076906101dc565b6001600160a01b039091168152602001604051809103905ff08015801561009f573d5f803e3d5ffd5b506001600160a01b031660a0526040516012906100bb906101e9565b606080825260099082015268063757272656e6379360bc1b608082015260a06020820181905260029082015261063360f41b60c082015260ff909116604082015260e001604051809103905ff080158015610118573d5f803e3d5ffd5b506001600160a01b031660c052604051601290610134906101e9565b60608082526009908201526863757272656e63793160b81b608082015260a06020820181905260029082015261633160f01b60c082015260ff909116604082015260e001604051809103905ff080158015610191573d5f803e3d5ffd5b506001600160a01b0390811660e081905260c05190911611156101c95760e0805160c080516001600160a01b03908116909352911690525b5061020d565b61502b80610c2583390190565b6116ad80615c5083390190565b610eea806172fd83390190565b5f60208284031215610206575f80fd5b5051919050565b60805160a05160c05160e0516109bb61026a5f395f81816101eb015281816103eb015261059701525f818161010c015281816102ef015261056801525f81816102c0015281816103bc01526104e001525f61064601526109bb5ff3fe608060405234801561000f575f80fd5b506004361061003f575f3560e01c806306ba06fa14610043578063182148ef146100585780636af57741146100d5575b5f80fd5b6100566100513660046106d8565b6100e8565b005b5f5460015460028054610091936001600160a01b03908116938082169362ffffff600160a01b83041693600160b81b909204900b911685565b604080516001600160a01b039687168152948616602086015262ffffff9093169284019290925260020b606083015291909116608082015260a00160405180910390f35b6100566100e336600461073f565b61055c565b5f8313156102a9576040516340c10f1960e01b8152306004820152602481018490527f00000000000000000000000000000000000000000000000000000000000000006001600160a01b0316906340c10f19906044016020604051808303815f875af115801561015a573d5f803e3d5ffd5b505050506040513d601f19601f8201168201806040525081019061017e9190610842565b6101cf5760405162461bcd60e51b815260206004820152601860248201527f4d696e74696e672063757272656e637930206661696c6564000000000000000060448201526064015b60405180910390fd5b6040516340c10f1960e01b8152306004820152602481018490527f00000000000000000000000000000000000000000000000000000000000000006001600160a01b0316906340c10f19906044016020604051808303815f875af1158015610239573d5f803e3d5ffd5b505050506040513d601f19601f8201168201806040525081019061025d9190610842565b6102a95760405162461bcd60e51b815260206004820152601860248201527f4d696e74696e672063757272656e637931206661696c6564000000000000000060448201526064016101c6565b60405163095ea7b360e01b81526001600160a01b037f0000000000000000000000000000000000000000000000000000000000000000811660048301525f1960248301527f0000000000000000000000000000000000000000000000000000000000000000169063095ea7b3906044016020604051808303815f875af1158015610335573d5f803e3d5ffd5b505050506040513d601f19601f820116820180604052508101906103599190610842565b6103a55760405162461bcd60e51b815260206004820152601d60248201527f417070726f76616c20666f722063757272656e637930206661696c656400000060448201526064016101c6565b60405163095ea7b360e01b81526001600160a01b037f0000000000000000000000000000000000000000000000000000000000000000811660048301525f1960248301527f0000000000000000000000000000000000000000000000000000000000000000169063095ea7b3906044016020604051808303815f875af1158015610431573d5f803e3d5ffd5b505050506040513d601f19601f820116820180604052508101906104559190610842565b6104a15760405162461bcd60e51b815260206004820152601d60248201527f417070726f76616c20666f722063757272656e637931206661696c656400000060448201526064016101c6565b60408051608081018252600284810b825283900b60208201528082018590525f606082018190529151632d35e7ed60e11b815290916001600160a01b037f00000000000000000000000000000000000000000000000000000000000000001691635a6bcfda916105159185906004016108ad565b6020604051808303815f875af1158015610531573d5f803e3d5ffd5b505050506040513d601f19601f8201168201806040525081019061055591906108fe565b5050505050565b6040805160a0810182527f00000000000000000000000000000000000000000000000000000000000000006001600160a01b039081168083527f000000000000000000000000000000000000000000000000000000000000000082166020840181905262ffffff8a811685870181905260028b810b60608801528a861660809097018790525f80546001600160a01b03199081169096178155600180546001600160b81b031916909517600160a01b9093029290921762ffffff60b81b1916600160b81b938d16939093029290921790925580549092169093179055915163695c5bf560e01b81527f00000000000000000000000000000000000000000000000000000000000000009092169163695c5bf59161067f9186908690600401610915565b6020604051808303815f875af115801561069b573d5f803e3d5ffd5b505050506040513d601f19601f820116820180604052508101906106bf919061096a565b505050505050565b8060020b81146106d5575f80fd5b50565b5f805f606084860312156106ea575f80fd5b8335925060208401356106fc816106c7565b9150604084013561070c816106c7565b809150509250925092565b6001600160a01b03811681146106d5575f80fd5b634e487b7160e01b5f52604160045260245ffd5b5f805f805f60a08688031215610753575f80fd5b853562ffffff81168114610765575f80fd5b94506020860135610775816106c7565b9350604086013561078581610717565b9250606086013561079581610717565b9150608086013567ffffffffffffffff8111156107b0575f80fd5b8601601f810188136107c0575f80fd5b803567ffffffffffffffff8111156107da576107da61072b565b604051601f8201601f19908116603f0116810167ffffffffffffffff811182821017156108095761080961072b565b6040528181528282016020018a1015610820575f80fd5b816020840160208301375f602083830101528093505050509295509295909350565b5f60208284031215610852575f80fd5b81518015158114610861575f80fd5b9392505050565b80546001600160a01b0390811683526001820154808216602085015260a081901c62ffffff16604085015260b81c600290810b60608501529091015416608090910152565b6108b78184610868565b8151600290810b60a08301526020830151900b60c0820152604082015160e082015260609091015161010082015261014061012082018190525f9082015261016001919050565b5f6020828403121561090e575f80fd5b5051919050565b61091f8185610868565b60018060a01b03831660a082015260e060c08201525f82518060e0840152806020850161010085015e5f6101008285010152610100601f19601f830116840101915050949350505050565b5f6020828403121561097a575f80fd5b8151610861816106c756fea2646970667358221220741854c9e9b9c3a74efc8bb706f697fc5cff5d2a9233dd997b421da08372ac5264736f6c634300081a003360c0604052348015600e575f80fd5b5060405161502b38038061502b833981016040819052602b916077565b5f80546001600160a01b031916339081178255604051839282917f8be0079c531659141344cd1fd0a4f28419497f9722a3daafe3b4186f6b6457e0908290a350608052503060a052608d565b5f602082840312156086575f80fd5b5051919050565b60805160a051614f766100b55f395f6117e201525f818161220b01526122490152614f765ff3fe6080604052600436106101fb575f3560e01c80635a6bcfda11610113578063a58411941161009d578063f135baaa1161006d578063f135baaa14610641578063f2fde38b14610660578063f3cd914c1461067f578063f5298aca1461069e578063fe99049a146106bd575f80fd5b8063a5841194146105ab578063b6363cf2146105ca578063dbd035ff14610603578063f02de3b214610622575f80fd5b806380f0b44c116100e357806380f0b44c146104ed5780638161b8741461050c5780638da5cb5b1461052b57806397e8cd4e146105615780639bf6645f1461058c575f80fd5b80635a6bcfda1461046657806360460f061461049a578063695c5bf5146104af5780637e87ce7d146104ce575f80fd5b8063234266d711610194578063426a849311610164578063426a8493146103a157806348c89491146103c057806352759651146103ec578063558a72971461040b578063598af9e71461042a575f80fd5b8063234266d7146103245780632d7713891461034357806335fd631a146103625780633dd45adb1461038e575f80fd5b80630b0d9c09116101cf5780630b0d9c09146102bd57806311da60b4146102de578063156e29f6146102e65780631e2eaeaf14610305575f80fd5b8062fdd58e146101ff57806301ffc9a71461024857806307eff0dd14610277578063095bcdb61461029e575b5f80fd5b34801561020a575f80fd5b50610235610219366004614397565b600460209081525f928352604080842090915290825290205481565b6040519081526020015b60405180910390f35b348015610253575f80fd5b506102676102623660046143c1565b6106dc565b604051901515815260200161023f565b348015610282575f80fd5b5061028b600181565b60405160029190910b815260200161023f565b3480156102a9575f80fd5b506102676102b83660046143e8565b610712565b3480156102c8575f80fd5b506102dc6102d736600461441a565b6107b9565b005b61023561080a565b3480156102f1575f80fd5b506102dc6103003660046143e8565b61083c565b348015610310575f80fd5b5061023561031f366004614458565b610887565b34801561032f575f80fd5b5061023561033e3660046145d7565b610891565b34801561034e575f80fd5b506102dc61035d36600461463b565b610941565b34801561036d575f80fd5b5061038161037c366004614656565b6109d7565b60405161023f9190614676565b61023561039c36600461463b565b610a14565b3480156103ac575f80fd5b506102676103bb3660046143e8565b610a46565b3480156103cb575f80fd5b506103df6103da3660046146b8565b610aaa565b60405161023f91906146f6565b3480156103f7575f80fd5b506102dc61040636600461472b565b610b6d565b348015610416575f80fd5b5061026761042536600461476c565b610bdc565b348015610435575f80fd5b5061023561044436600461441a565b600560209081525f938452604080852082529284528284209052825290205481565b348015610471575f80fd5b50610485610480366004614796565b610c4b565b6040805192835260208301919091520161023f565b3480156104a5575f80fd5b5061028b617fff81565b3480156104ba575f80fd5b5061028b6104c9366004614838565b610dde565b3480156104d9575f80fd5b506102dc6104e836600461472b565b610fcd565b3480156104f8575f80fd5b506102dc610507366004614397565b61107f565b348015610517575f80fd5b5061023561052636600461441a565b6110f2565b348015610536575f80fd5b505f54610549906001600160a01b031681565b6040516001600160a01b03909116815260200161023f565b34801561056c575f80fd5b5061023561057b36600461463b565b60016020525f908152604090205481565b348015610597575f80fd5b506103816105a636600461487f565b611181565b3480156105b6575f80fd5b506102dc6105c536600461463b565b6111ba565b3480156105d5575f80fd5b506102676105e43660046148ee565b600360209081525f928352604080842090915290825290205460ff1681565b34801561060e575f80fd5b5061038161061d36600461487f565b6111f6565b34801561062d575f80fd5b50600254610549906001600160a01b031681565b34801561064c575f80fd5b5061023561065b366004614458565b61122d565b34801561066b575f80fd5b506102dc61067a36600461463b565b611237565b34801561068a575f80fd5b50610235610699366004614925565b6112c9565b3480156106a9575f80fd5b506102dc6106b83660046143e8565b61140f565b3480156106c8575f80fd5b506102676106d73660046149c3565b611454565b5f6301ffc9a760e01b6001600160e01b03198316148061070c5750630f632fb360e01b6001600160e01b03198316145b92915050565b335f90815260046020908152604080832085845290915281208054839190839061073d908490614a1a565b90915550506001600160a01b0384165f90815260046020908152604080832086845290915281208054849290610774908490614a2d565b909155505060408051338082526020820185905285926001600160a01b038816925f80516020614ee183398151915291015b60405180910390a45060015b9392505050565b5f80516020614f018339815191525c6107dc576107dc6354e3ca0d60e01b6115b3565b6107f1836107e9836115bb565b5f03336115db565b6108056001600160a01b038416838361162e565b505050565b5f5f80516020614f018339815191525c61082e5761082e6354e3ca0d60e01b6115b3565b610837336116c2565b905090565b5f80516020614f018339815191525c61085f5761085f6354e3ca0d60e01b6115b3565b8161086d816107e9846115bb565b610881846001600160a01b03831684611765565b50505050565b5f81545f5260205ff35b5f5f80516020614f018339815191525c6108b5576108b56354e3ca0d60e01b6115b3565b6108bd6117d7565b5f6108dc6108cc8860a0902090565b5f90815260066020526040902090565b90506108e781611819565b6080870151610903906001600160a01b0316888888888861183d565b61090e8187876118ba565b915061091b87833361196d565b6080870151610937906001600160a01b03168888888888611995565b5095945050505050565b5f546001600160a01b0316331461098e5760405162461bcd60e51b815260206004820152600c60248201526b15539055551213d49256915160a21b60448201526064015b60405180910390fd5b600280546001600160a01b0319166001600160a01b0383169081179091556040517fb4bd8ef53df690b9943d3318996006dbb82a25f54719d8c8035b516a2a5b8acc905f90a250565b6060604051808360051b6020835284602084015260408301925080830190505b855483526020830192506001860195508083106109f75781810382f35b5f5f80516020614f018339815191525c610a3857610a386354e3ca0d60e01b6115b3565b61070c826116c2565b919050565b335f8181526005602090815260408083206001600160a01b03881680855290835281842087855290925280832085905551919285927fb3fd5071835887567a0671151121894ddccc2842f1d10bedad13e0d17cace9a7906107a69087815260200190565b60605f80516020614f018339815191525c15610ad057610ad06328486b6360e11b6115b3565b610ad8611a07565b6040516348eeb9a360e11b815233906391dd734690610afd9086908690600401614a68565b5f604051808303815f875af1158015610b18573d5f803e3d5ffd5b505050506040513d5f823e601f3d908101601f19168201604052610b3f9190810190614a7b565b90505f80516020614f218339815191525c15610b6557610b65635212cba160e01b6115b3565b61070c611a1a565b604082015162ffffff1662800000141580610b9e575081608001516001600160a01b0316336001600160a01b031614155b15610bb357610bb36330d2164160e01b6115b3565b610bc18162ffffff16611a2c565b60a082205f8181526006602052604090206108059083611a52565b335f8181526003602090815260408083206001600160a01b038716808552908352818420805460ff191687151590811790915591519182529293917fceb576d9f15e4e200fdb5096d64d5dfd667e16def20c1eefd14256d8e3faa267910160405180910390a350600192915050565b5f805f80516020614f018339815191525c610c7057610c706354e3ca0d60e01b6115b3565b610c786117d7565b60a086205f818152600660205260409020610c9281611819565b6080880151610cad906001600160a01b031689898989611a6d565b5f610d146040518060c00160405280336001600160a01b031681526020018a5f015160020b81526020018a6020015160020b8152602001610cf18b60400151611b6f565b600f0b81526060808d015160020b60208301528b01516040909101528390611b8b565b94509050610d228185611f05565b9450336001600160a01b0316837f541c041c2cce48e614b3de043c9280f06b6164c0a1741649e2de3c3d375f79748a5f01518b602001518c60400151604051610d8693929190600293840b81529190920b6020820152604081019190915260600190565b60405180910390a360808901515f90610dac906001600160a01b03168b8b898c8c611f38565b90965090508015610dc657610dc68a828c6080015161196d565b610dd18a873361196d565b5050505094509492505050565b5f610de76117d7565b6060850151617fff60029190910b1315610e12576060850151610e12906316e0049f60e31b90612057565b600160020b856060015160020b1215610e3c576060850151610e3c90631d3d20b160e31b90612057565b845160208601516001600160a01b03908116911610610e6e5784516020860151610e6e916306e6c98360e41b91612066565b610e92856040015186608001516001600160a01b031661208890919063ffffffff16565b610ead576080850151610ead90630732d7b560e51b90612149565b5f610ec0866040015162ffffff1661215e565b6080870151909150610ede906001600160a01b031687878787612183565b60a086205f610eec886121f4565b5f848152600660205260409020909250610f099150888386612326565b6080890151909450610f28906001600160a01b03168989878a8a612385565b87602001516001600160a01b0316885f01516001600160a01b0316837fdd466e674ea557f56295e2d0218a125ea4b4f0f6f3307b95f85e6110838d64388b604001518c606001518d608001518d8b604051610fba95949392919062ffffff959095168552600293840b60208601526001600160a01b03928316604086015291166060840152900b608082015260a00190565b60405180910390a4505050949350505050565b6002546001600160a01b03163314610fef57610fef6348f5c3ed60e01b6115b3565b6103e9610fff821610623e900062fff0008316101661101e5761101e63a7abe2f760e01b62ffffff8316612149565b60a082206110408261103a835f90815260066020526040902090565b906123f8565b60405162ffffff8316815281907fe9c42593e71f84403b84352cd168d693e2c9fcd1fdbcc3feb21d92b43e6696f99060200160405180910390a2505050565b5f80516020614f018339815191525c6110a2576110a26354e3ca0d60e01b6115b3565b335f9081526001600160a01b038316602052604081205c906110c3836115bb565b90508181600f0b146110df576110df63bda73abf60e01b6115b3565b610881846110ec83614b0d565b336115db565b6002545f906001600160a01b03163314611116576111166348f5c3ed60e01b6115b3565b8115611122578161113b565b6001600160a01b0383165f908152600160205260409020545b6001600160a01b0384165f90815260016020526040812080549293508392909190611167908490614a1a565b909155506107b290506001600160a01b038416858361162e565b606060405180602082528360208301526040820191508360051b8201855b80355c84526020938401930181841061119f575b5081810382f35b6111c261240d565b6001600160a01b0381166111d35750565b5f6111e6826001600160a01b0316612441565b90506111f282826124bd565b5050565b606060405180602082528360208301526040820191508360051b8201855b803554845260209384019301818410156111b357611214565b5f815c5f5260205ff35b5f546001600160a01b0316331461127f5760405162461bcd60e51b815260206004820152600c60248201526b15539055551213d49256915160a21b6044820152606401610985565b5f80546001600160a01b0319166001600160a01b0383169081178255604051909133917f8be0079c531659141344cd1fd0a4f28419497f9722a3daafe3b4186f6b6457e09190a350565b5f5f80516020614f018339815191525c6112ed576112ed6354e3ca0d60e01b6115b3565b6112f56117d7565b83602001515f036113105761131063be8b850760e01b6115b3565b60a085205f81815260066020526040902061132a81611819565b60808701515f908190819061134b906001600160a01b03168b8b8b8b6124fd565b8093508195508294505050506113ba84866040518060a001604052808e6060015160020b81526020018d5f0151151581526020018681526020018d604001516001600160a01b031681526020018562ffffff168152508c5f01516113b3578d60200151612619565b8d51612619565b60808b01519096505f92506113de91506001600160a01b03168a8a888b8b88612707565b909550905080156113f8576113f889828b6080015161196d565b61140389863361196d565b50505050949350505050565b5f80516020614f018339815191525c611432576114326354e3ca0d60e01b6115b3565b81611440816110ec846115bb565b610881846001600160a01b0383168461282a565b5f336001600160a01b0386161480159061149157506001600160a01b0385165f90815260036020908152604080832033845290915290205460ff16155b15611501576001600160a01b0385165f90815260056020908152604080832033845282528083208684529091529020545f1981146114ff576114d38382614a1a565b6001600160a01b0387165f90815260056020908152604080832033845282528083208884529091529020555b505b6001600160a01b0385165f90815260046020908152604080832086845290915281208054849290611533908490614a1a565b90915550506001600160a01b0384165f9081526004602090815260408083208684529091528120805484929061156a908490614a2d565b9091555050604080513381526020810184905284916001600160a01b0380881692908916915f80516020614ee1833981519152910160405180910390a45060015b949350505050565b805f5260045ffd5b5f6001607f1b82106115d7576115d76393dafdf160e01b6115b3565b5090565b81600f0b5f036115ea57505050565b5f806116006001600160a01b03861684866128e8565b91509150805f0361161857611613612921565b611627565b815f0361162757611627612949565b5050505050565b5f6001600160a01b038416611661575f805f8085875af190508061165c5761165c6356cdd02560e11b612971565b610881565b60405163a9059cbb60e01b81526001600160a01b038416600482015282602482015260205f6044835f895af13d15601f3d1160015f511416171691505f81525f60208201525f6040820152508061088157610881632745a14f60e21b612971565b5f5f80516020614ec18339815191525c6001600160a01b0381166116e85734915061174c565b34156116fe576116fe6319d245cf60e01b6115b3565b7f1e0745a7db1623981f0b2a5d4232364c00787266eb75ad546f190e6cebe9bd955c5f6117336001600160a01b038416612441565b905061173f8282614a1a565b935061174961299e565b50505b61175f81611759846115bb565b856115db565b50919050565b6001600160a01b0383165f90815260046020908152604080832085845290915281208054839290611797908490614a2d565b9091555050604080513381526020810183905283916001600160a01b038616915f915f80516020614ee183398151915291015b60405180910390a4505050565b306001600160a01b037f00000000000000000000000000000000000000000000000000000000000000001614611817576118176306c4a1c760e11b6115b3565b565b80546001600160a01b03165f0361183a5761183a63486aa30760e01b6115b3565b50565b85336001600160a01b038216146118b15760208716156118b1576118af33878787878760405160240161187596959493929190614b74565b60408051601f198184030181529190526020810180516001600160e01b0316635b54587d60e11b1790526001600160a01b038916906129b0565b505b50505050505050565b60038301545f906001600160801b03168082036118e1576118e163a74f97ab60e01b6115b3565b61190f6118ed856115bb565b5f036118f8856115bb565b5f0360809190911b6001600160801b039091161790565b9150831561193b5761192f84600160801b836001600160801b0316612a40565b60018601805490910190555b82156119655761195983600160801b836001600160801b0316612a40565b60028601805490910190555b509392505050565b82516119839061197d8460801d90565b836115db565b610805836020015161197d84600f0b90565b85336001600160a01b038216146118b15760108716156118b1576118af3387878787876040516024016119cd96959493929190614b74565b60408051601f198184030181529190526020810180516001600160e01b031663e1b4af6960e01b1790526001600160a01b038916906129b0565b60015f80516020614f018339815191525d565b5f5f80516020614f018339815191525d565b620f424062ffffff8216111561183a5761183a631400211360e01b62ffffff8316612149565b611a5b82611819565b8154611a679082612adc565b90915550565b84336001600160a01b03821614611b67575f8460400151138015611a945750610800861615155b15611af557611aef3386868686604051602401611ab5959493929190614bbe565b60408051601f198184030181529190526020810180516001600160e01b031663259982e560e01b1790526001600160a01b038816906129b0565b50611b67565b5f846040015113158015611b0c5750610200861615155b15611b67576118b13386868686604051602401611b2d959493929190614bbe565b60408051601f198184030181529190526020810180516001600160e01b031663021d0ee760e41b1790526001600160a01b038816906129b0565b505050505050565b80600f81900b8114610a4157610a416393dafdf160e01b6115b3565b6060810151602082015160408301515f9283929091611baa8282612af7565b604080516080810182525f80825260208201819052918101829052606081019190915283600f0b5f14611cef57611be38884865f612b57565b6001600160801b0316602083015215158152611c028883866001612b57565b6001600160801b03166060830152151560408201525f600f85900b12611cb4575f611c52886080015160020b620d89e7198190058102620d89e8829005820203056001016001600160801b030490565b9050806001600160801b031682602001516001600160801b03161115611c8357611c8363b8e3c38560e01b85612057565b806001600160801b031682606001516001600160801b03161115611cb257611cb263b8e3c38560e01b84612057565b505b805115611cd0576080870151611cd09060058a01908590612c11565b806040015115611cef576080870151611cef9060058a01908490612c11565b5f80611cfc8a8686612c63565b8a5160a08c015160408051602681019290925260068083018a9052600383018b9052928252603a600c8301205f838301819052602080850182905293819052908152928f01909152812092945090925080611d59838a8787612d17565b91509150611d85611d69836115bb565b611d72836115bb565b6001600160801b031660809190911b1790565b995050505050505f84600f0b1215611dee57805115611dc157600283810b5f90815260048a016020526040812081815560018101829055909101555b806040015115611dee57600282810b5f90815260048a016020526040812081815560018101829055909101555b5082600f0b5f14611efb5786545f80611e0a8360a01c60020b90565b6001600160a01b038416915091508460020b8260020b1215611e5957611e52611e4c611e47611e3888612dd0565b611e4188612dd0565b8a613088565b611b6f565b60801b90565b9750611ef7565b8360020b8260020b1215611ed257611e90611e7a611e4783611e4188612dd0565b611d72611e47611e8989612dd0565b858b6130c0565b60038b0154909850611eab906001600160801b0316876130ec565b60038b0180546001600160801b0319166001600160801b0392909216919091179055611ef7565b611ef45f611d72611e47611ee589612dd0565b611eee89612dd0565b8b6130c0565b97505b5050505b5050509250929050565b5f608082811d9084901d01600f83810b9085900b01611f2f611f2683611b6f565b611d7283611b6f565b95945050505050565b5f806001600160a01b0388163303611f5457508390505f61204c565b8491505f86604001511315611fe057610400881615611fdb57611fcc338888888888604051602401611f8b96959493929190614c1e565b60408051601f198184030181529190526020810180516001600160e01b0316625a2a8160e81b17905260028a1615155b6001600160a01b038b169190613113565b9050611fd88282613154565b91505b61204c565b61010088161561204c5761203d33888888888860405160240161200896959493929190614c1e565b60408051601f198184030181529190526020810180516001600160e01b03166346d95b2960e11b17905260018a161515611fbb565b90506120498282613154565b91505b965096945050505050565b815f528060020b60045260245ffd5b825f526001600160a01b0382166004526001600160a01b03811660245260445ffd5b5f6080831615801561209c57506008831615155b156120a857505f61070c565b604083161580156120bb57506004831615155b156120c757505f61070c565b61040083161580156120db57506002831615155b156120e757505f61070c565b61010083161580156120fb57506001831615155b1561210757505f61070c565b6001600160a01b0383161561213857613fff831615158061213357506280000062ffffff8316146107b2565b6107b2565b5062ffffff16628000001415919050565b815f526001600160a01b03811660045260245ffd5b5f6280000062ffffff83160361217557505f919050565b6115d78262ffffff16611a2c565b84336001600160a01b03821614611b6757612000861615611b67576118b133868686866040516024016121ba959493929190614c85565b60408051601f198184030181529190526020810180516001600160e01b03166301a206c160e51b1790526001600160a01b038816906129b0565b6002545f9081906001600160a01b031615612321577f00000000000000000000000000000000000000000000000000000000000000005a101561224157612241630f724b8160e11b6115b3565b6002546040517f0000000000000000000000000000000000000000000000000000000000000000916001600160a01b0316905f90612283908790602401614cc6565b60408051601f198184030181529190526020810180516001600160e01b031663553bfc3760e01b17815281519192505f918291829190828789f13d60201416955085156122da576040513d5f823e805191505f8152505b8580156122eb57508062ffffff1681145b801561230857506103e9610fff821610623e900062fff000831610165b612313575f80612317565b6001815b9096509450505050505b915091565b83545f906001600160a01b03161561234857612348637983c05160e01b6115b3565b61235184613175565b905061237a826123748561236e6001600160a01b03891686613460565b9061347b565b90612adc565b909455509192915050565b85336001600160a01b038216146118b1576110008716156118b1576118af3387878787876040516024016123be96959493929190614cd4565b60408051601f198184030181529190526020810180516001600160e01b031663a910f80f60e01b1790526001600160a01b038916906129b0565b61240182611819565b8154611a67908261347b565b61242d5f80516020614ec18339815191525c6001600160a01b0316613496565b6118175761181763996caf6560e01b6115b3565b5f6001600160a01b038216612457575047919050565b6040516370a0823160e01b81523060048201526001600160a01b038316906370a0823190602401602060405180830381865afa158015612499573d5f803e3d5ffd5b505050506040513d601f19601f8201168201806040525081019061070c9190614d1d565b6001600160a01b0382165f80516020614ec18339815191525d807f1e0745a7db1623981f0b2a5d4232364c00787266eb75ad546f190e6cebe9bd955d5050565b60208301515f806001600160a01b038816330361251c575f915061260e565b608088161561260e575f61257289338a8a8a8a604051602401612543959493929190614d34565b60408051601f198184030181529190526020810180516001600160e01b03166315d7892d60e21b1790526129b0565b9050805160601461258d5761258d631e048e1d60e01b6115b3565b604088015162ffffff1662800000036125a857606081015191505b600889161561260c57604081015192505f6125c38460801d90565b905080600f0b5f1461260a575f85126125e0600f83900b87614d8d565b9550806125ef575f86126125f3565b5f86135b1561260857612608637d05b8eb60e11b6115b3565b505b505b505b955095509592505050565b5f8080808061262889886134a7565b93509350935093505f831115612656576001600160a01b0386165f9081526001602052604090208054840190555b33887f40e9cecb9f5f1f1c5b9c97dec2917b7ee92e57ba5563708daca94dd84ad7112f6126838760801d90565b61268d88600f0b90565b60408087015160a0880151606089015192516126f2959493908b90600f96870b81529490950b60208501526001600160a01b039290921660408401526001600160801b0316606083015260020b608082015262ffffff9190911660a082015260c00190565b60405180910390a35091979650505050505050565b5f806001600160a01b038916330361272357508490505f61281e565b5f61272e8460801d90565b90505f61273b85600f0b90565b905060408b16156127b5576127a8611e47338c8c8c8c8c60405160240161276796959493929190614db4565b60408051601f198184030181529190526020810180516001600160e01b031663b47b2fb160e01b17905260048e1615156001600160a01b038f169190613113565b6127b29082614e14565b90505b5f81600f0b5f1415806127cb575082600f0b5f14155b1561281657895160208b01515f13901515146127f6576001600160801b038316608083901b17612807565b6001600160801b038216608084901b175b90506128138982613154565b98505b889450925050505b97509795505050505050565b336001600160a01b038416811480159061286957506001600160a01b038085165f9081526003602090815260408083209385168352929052205460ff16155b156128dd576001600160a01b038085165f9081526005602090815260408083209385168352928152828220868352905220545f1981146128db576128ad8382614a1a565b6001600160a01b038087165f9081526005602090815260408083209387168352928152828220888352905220555b505b610881848484613b54565b6001600160a01b038281165f90815290841660205260408120805c9190612913600f85900b84614d8d565b915081815d50935093915050565b5f80516020614f218339815191525c600181039050805f80516020614f218339815191525d50565b5f80516020614f218339815191525c600181019050805f80516020614f218339815191525d50565b3d60405182815260206004820152816024820152815f604483013e602080601f8401040260440191508181fd5b5f5f80516020614ec18339815191525d565b60605f805f8451602086015f885af19050806129d6576129d663fb6a608160e01b612971565b6040519150601f19603f3d011682016040523d82523d5f602084013e602082511080612a24575060208301516001600160e01b031916612a17836020015190565b6001600160e01b03191614155b15612a3957612a39631e048e1d60e01b6115b3565b5092915050565b5f838302815f1985870982811083820303915050808411612a5f575f80fd5b805f03612a71575082900490506107b2565b5f848688095f868103871696879004966002600389028118808a02820302808a02820302808a02820302808a02820302808a02820302808a02909103029181900381900460010186841190950394909402919094039290920491909117919091029150509392505050565b60d01b62ffffff60d01b1662ffffff60d01b19919091161790565b8060020b8260020b12612b1657612b1663c4433ed560e01b8383613bbd565b620d89e719600283900b1215612b3757612b3763d5e2f7ab60e01b83612057565b620d89e8600282900b13156111f2576111f263035aeeff60e31b82612057565b600283900b5f908152600485016020526040812080548291906001600160801b0381169060801d612b8882886130ec565b6001600160801b03808216159084168015919091141596509094505f03612bd257885460a01c60020b60020b8860020b13612bd2576001808a0154908401556002808a0154908401555b5f86612be757612be28883614e14565b612bf1565b612bf18883614e41565b90508060801b6001600160801b0386161784555050505094509492505050565b600291820b910b80820715612c3e5760405163d4d8f3e681528260208201528160408201526044601c8201fd5b80820591508160081d5f528260205260405f20600160ff84161b815418815550505050565b600282810b5f81815260048601602052604080822085850b83529082208754929485949293919260a09290921c900b90811215612cb9578160010154836001015403945081600201548360020154039350612d0c565b8560020b8160020b12612ce5578260010154826001015403945082600201548260020154039350612d0c565b81600101548360010154896001015403039450816002015483600201548960020154030393505b505050935093915050565b83545f9081906001600160801b0316600f86900b8203612d5657806001600160801b03165f03612d5157612d51632bbfae4960e21b6115b3565b612d7c565b612d6081876130ec565b87546001600160801b0319166001600160801b03919091161787555b612d9a87600101548603826001600160801b0316600160801b612a40565b9250612dba87600201548503826001600160801b0316600160801b612a40565b6001880195909555505060029094015591929050565b60020b5f60ff82901d80830118620d89e8811115612df957612df96345c3193d60e11b84612057565b7001fffcb933bd6fad37aa2d162d1a5940016001821602600160801b186002821615612e35576ffff97272373d413259a46990580e213a0260801c5b6004821615612e54576ffff2e50f5f656932ef12357cf3c7fdcc0260801c5b6008821615612e73576fffe5caca7e10e4e61c3624eaa0941cd00260801c5b6010821615612e92576fffcb9843d60f6159c9db58835c9266440260801c5b6020821615612eb1576fff973b41fa98c081472e6896dfb254c00260801c5b6040821615612ed0576fff2ea16466c96a3843ec78b326b528610260801c5b6080821615612eef576ffe5dee046a99a2a811c461f1969c30530260801c5b610100821615612f0f576ffcbe86c7900a88aedcffc83b479aa3a40260801c5b610200821615612f2f576ff987a7253ac413176f2b074cf7815e540260801c5b610400821615612f4f576ff3392b0822b70005940c7a398e4b70f30260801c5b610800821615612f6f576fe7159475a2c29b7443b29c7fa6e889d90260801c5b611000821615612f8f576fd097f3bdfd2022b8845ad8f792aa58250260801c5b612000821615612faf576fa9f746462d870fdf8a65dc1f90e061e50260801c5b614000821615612fcf576f70d869a156d2a1b890bb3df62baf32f70260801c5b618000821615612fef576f31be135f97d08fd981231505542fcfa60260801c5b62010000821615613010576f09aa508b5b7a84e1c677de54f3e99bc90260801c5b62020000821615613030576e5d6af8dedb81196699c329225ee6040260801c5b6204000082161561304f576d2216e584f5fa1ea926041bedfe980260801c5b6208000082161561306c576b048a170391f7dc42444e8fa20260801c5b5f841315613078575f19045b63ffffffff0160201c9392505050565b5f8082600f0b126130af576130a86130a38585856001613bda565b613c9d565b5f036115ab565b6115ab6130a38585855f035f613bda565b5f8082600f0b126130db576130a86130a38585856001613cb6565b6115ab6130a38585855f035f613cb6565b6001600160801b038216600f82900b01608081901c1561070c576393dafdf15f526004601cfd5b5f8061311f85856129b0565b90508261312f575f9150506107b2565b805160401461314857613148631e048e1d60e01b6115b3565b60400151949350505050565b5f608082811d9084901d03600f83810b9085900b03611f2f611f2683611b6f565b5f73fffd8963efd1fc6a506488495d951d51639616826401000276a21983016001600160a01b031611156131b4576131b46318521d4960e21b83612149565b640100000000600160c01b03602083901b166001600160801b03811160071b81811c6001600160401b03811160061b90811c63ffffffff811160051b90811c61ffff811160041b90811c60ff8111600390811b91821c600f811160021b90811c918211600190811b92831c9790881196179094179092171790911717176080811061324757607f810383901c9150613251565b80607f0383901b91505b908002607f81811c60ff83811c9190911c800280831c81831c1c800280841c81841c1c800280851c81851c1c800280861c81861c1c800280871c81871c1c800280881c81881c1c800280891c81891c1c8002808a1c818a1c1c8002808b1c818b1c1c8002808c1c818c1c1c8002808d1c818d1c1c8002808e1c9c81901c9c909c1c80029c8d901c9e9d607f198f0160401b60c09190911c678000000000000000161760c19b909b1c674000000000000000169a909a1760c29990991c672000000000000000169890981760c39790971c671000000000000000169690961760c49590951c670800000000000000169490941760c59390931c670400000000000000169290921760c69190911c670200000000000000161760c79190911c670100000000000000161760c89190911c6680000000000000161760c99190911c6640000000000000161760ca9190911c6620000000000000161760cb9190911c6610000000000000161760cc9190911c6608000000000000161760cd9190911c66040000000000001617693627a301d71055774c8581026f028f6481ab7f045a5af012a19d003aa9198101608090811d906fdb2df09e81959a81455e260799a0632f8301901d600281810b9083900b1461345157886001600160a01b031661343682612dd0565b6001600160a01b0316111561344b5781613453565b80613453565b815b9998505050505050505050565b60a01b62ffffff60a01b1662ffffff60a01b19919091161790565b60b81b62ffffff60b81b1662ffffff60b81b19919091161790565b5f6001600160a01b0382161561070c565b6040805160c0810182525f80825260208201819052918101829052606081018290526080810182905260a08101829052819081908554602086015160038801546001600160801b03165f8261350457610fff60c485901c1661350e565b610fff60b885901c165b60408a81015187525f60208801526001600160a01b0386169087015260a085901c60020b606087015261ffff1690508261354c578960020154613552565b89600101545b6080868101919091526001600160801b03831660a08701528901515f9062400000166135875760d085901c62ffffff16613599565b6135998a6080015162ffffff16613d02565b905081156135c757620f424062ffffff821661ffff84168181028381061515939004929092019101036135c9565b805b60408b01519097505f13905062ffffff8716620f42401480156135ea575080155b156135ff576135ff634b10312360e11b6115b3565b89604001515f0361361a575f80985098505050505050613b4b565b83156136985760608a01516001600160a01b03868116911610613659576136596001600160a01b0386165b60608c0151637c9c6e8f60e01b9190613d11565b6401000276a36001600160a01b03168a606001516001600160a01b031610156136935760608a015161369390639e4d7cc760e01b90612149565b613709565b60608a01516001600160a01b038681169116116136c1576136c16001600160a01b038616613645565b73fffd8963efd1fc6a506488495d951d5263988d266001600160a01b03168a606001516001600160a01b0316106137095760608a015161370990639e4d7cc760e01b90612149565b6040805160e0810182525f80825260208201819052918101829052606081018290526080810182905260a0810182905260c08101919091525b8651158061376957508a606001516001600160a01b031687604001516001600160a01b0316145b613a545760408701516001600160a01b0316815260608701518b516137939160058f019188613d3a565b1515604083015260020b60208201819052620d89e719126137b957620d89e71960208201525b620d89e860020b816020015160020b126137d757620d89e860208201525b6137e48160200151612dd0565b6001600160a01b03908116606083810182905260408a0151908e0151613825939192911680821891811160ff8a1618919091021860a08a01518a518c613e23565b60c085015260a084015260808301526001600160a01b0316604088015281613889576138548160a00151613c9d565b875103875260c08101516080820151613870916130a391614a2d565b876020018181516138819190614e6e565b9052506138c4565b61389c8160c00151826080015101613c9d565b875101875260a08101516138af90613c9d565b876020018181516138c09190614d8d565b9052505b8215613900575f620f4240848360c0015184608001510102816138e9576138e9614e8d565b60c084018051929091049182900390529990990198505b60a08701516001600160801b03161561393f576139338160c00151600160801b8960a001516001600160801b0316612a40565b60808801805190910190525b80606001516001600160a01b031687604001516001600160a01b031603613a1957806040015115613a01575f8086613980578d60010154896080015161398b565b88608001518e600201545b915091505f6139d68f85602001518585600292830b5f90815260049094016020526040909320600181018054909203909155908101805490920390915554600160801b9004600f0b90565b905087156139e1575f035b6139ef8a60a00151826130ec565b6001600160801b031660a08b01525050505b602081015160ff8616900360020b6060880152613742565b805f01516001600160a01b031687604001516001600160a01b031614613a4f57613a468760400151613175565b60020b60608801525b613742565b613a8c8760400151613a7389606001518961346090919063ffffffff16565b6001600160a01b0319166001600160a01b039091161790565b8c5560a08701516001600160801b03858116911614613acc5760a087015160038d0180546001600160801b0319166001600160801b039092169190911790555b84613ae057608087015160028d0155613aeb565b608087015160018d01555b81151585151514613b1f57613b18613b068860200151611b6f565b611d72895f01518e6040015103611b6f565b9950613b44565b613b41613b34885f01518d6040015103611b6f565b611d728960200151611b6f565b99505b5050505050505b92959194509250565b6001600160a01b0383165f90815260046020908152604080832085845290915281208054839290613b86908490614a1a565b9091555050604080513381526020810183905283915f916001600160a01b038716915f80516020614ee183398151915291016117ca565b6040518381528260020b60048201528160020b6024820152604481fd5b5f836001600160a01b0316856001600160a01b03161115613bf9579293925b6001600160a01b038516613c135762bfc9215f526004601cfd5b600160601b600160e01b03606084901b166001600160a01b038686031683613c6657866001600160a01b0316613c538383896001600160a01b0316612a40565b81613c6057613c60614e8d565b04613c92565b613c92613c7d8383896001600160a01b0316613fa9565b886001600160a01b0316808204910615150190565b979650505050505050565b805f811215610a4157610a416393dafdf160e01b6115b3565b5f6001600160a01b038481169086160360ff81901d90810118600160601b6001600160801b038516613ce9818484612a40565b9350845f83858409111684019350505050949350505050565b62bfffff8116610a4181611a2c565b6040518381526001600160a01b03831660048201526001600160a01b0382166024820152604481fd5b5f80600284810b9086900b8181078313919005038315613db557600281900b60081d600181810b5f90815260208a905260409020545f1960ff85168381019390931b01908116801515955085613d9757888360ff16860302613daa565b88613da182613fd9565b840360ff168603025b965050505050613e19565b6001908101600281900b60081d80830b5f90815260208a905260409020545f1960ff841694851b011990811680151595509293919285613dff57888360ff0360ff16860102613e12565b8883613e0a83614069565b0360ff168601025b9650505050505b5094509492505050565b5f80808062ffffff85166001600160a01b03808a16908b1610158288128015613f1c575f613e5c8a5f0385620f424003620f4240612a40565b905082613e7557613e708d8d8d6001613cb6565b613e82565b613e828c8e8d6001613bda565b9650868110613eb6578b9750620f42408414613ead57613ea8878586620f424003613fa9565b613eaf565b865b9450613ef2565b613ec28d8c8386614104565b975082613edb57613ed68d898d6001613cb6565b613ee8565b613ee8888e8d6001613bda565b9650868a5f030394505b82613f0857613f038d898d5f613bda565b613f14565b613f14888e8d5f613cb6565b955050613f9a565b81613f3257613f2d8c8c8c5f613bda565b613f3e565b613f3e8b8d8c5f613cb6565b9450848910613f4f578a9650613f61565b889450613f5e8c8b8785614152565b96505b81613f7857613f738c888c6001613cb6565b613f85565b613f85878d8c6001613bda565b9550613f97868485620f424003613fa9565b93505b50505095509550955095915050565b5f613fb5848484612a40565b90508180613fc557613fc5614e8d565b838509156107b257600101806107b2575f80fd5b5f808211613fe5575f80fd5b507f0706060506020504060203020504030106050205030304010505030400000000601f6f8421084210842108cc6318c6db6d54be831560081b6001600160801b03851160071b1784811c6001600160401b031060061b1784811c63ffffffff1060051b1784811c61ffff1060041b1784811c60ff1060031b1793841c1c161a1790565b5f808211614075575f80fd5b507e1f0d1e100c1d070f090b19131c1706010e11080a1a141802121b150316040581196001019091166101e07f804040554300526644320000502061067405302602000010750620017611707760fc7fb6db6db6ddddddddd34d34d349249249210842108c6318c639ce739cffffffff840260f81c161b60f71c1690811c63d76453e004601f169190911a1790565b5f6001600160801b038416156001600160a01b03861615171561412e57634f2461b85f526004601cfd5b81614145576141408585856001614195565b611f2f565b611f2f8585856001614280565b5f6001600160801b038416156001600160a01b03861615171561417c57634f2461b85f526004601cfd5b8161418d576141408585855f614280565b611f2f8585855f5b5f8115614205575f6001600160a01b038411156141c9576141c484600160601b876001600160801b0316612a40565b6141e0565b6141e06001600160801b038616606086901b614ea1565b90506141fd6141f8826001600160a01b038916614a2d565b614362565b9150506115ab565b5f6001600160a01b038411156142325761422d84600160601b876001600160801b0316613fa9565b61424f565b61424f606085901b6001600160801b038716808204910615150190565b9050806001600160a01b0387161161426e57634323a5555f526004601cfd5b6001600160a01b0386160390506115ab565b5f825f0361428f5750836115ab565b600160601b600160e01b03606085901b168215614321576001600160a01b038616848102908582816142c3576142c3614e8d565b04036142f3578181018281106142f1576142e783896001600160a01b031683613fa9565b93505050506115ab565b505b506141fd818561430c6001600160a01b038a1683614ea1565b6143169190614a2d565b808204910615150190565b6001600160a01b0386168481029085820414818311166143485763f5c787f15f526004601cfd5b8082036142e76141f8846001600160a01b038b1684613fa9565b806001600160a01b0381168114610a4157610a416393dafdf160e01b6115b3565b6001600160a01b038116811461183a575f80fd5b5f80604083850312156143a8575f80fd5b82356143b381614383565b946020939093013593505050565b5f602082840312156143d1575f80fd5b81356001600160e01b0319811681146107b2575f80fd5b5f805f606084860312156143fa575f80fd5b833561440581614383565b95602085013595506040909401359392505050565b5f805f6060848603121561442c575f80fd5b833561443781614383565b9250602084013561444781614383565b929592945050506040919091013590565b5f60208284031215614468575f80fd5b5035919050565b634e487b7160e01b5f52604160045260245ffd5b604051608081016001600160401b03811182821017156144a5576144a561446f565b60405290565b604051601f8201601f191681016001600160401b03811182821017156144d3576144d361446f565b604052919050565b803562ffffff81168114610a41575f80fd5b8035600281900b8114610a41575f80fd5b5f60a0828403121561450e575f80fd5b60405160a081016001600160401b03811182821017156145305761453061446f565b604052905080823561454181614383565b8152602083013561455181614383565b6020820152614562604084016144db565b6040820152614573606084016144ed565b6060820152608083013561458681614383565b6080919091015292915050565b5f8083601f8401126145a3575f80fd5b5081356001600160401b038111156145b9575f80fd5b6020830191508360208285010111156145d0575f80fd5b9250929050565b5f805f805f61010086880312156145ec575f80fd5b6145f687876144fe565b945060a0860135935060c0860135925060e08601356001600160401b0381111561461e575f80fd5b61462a88828901614593565b969995985093965092949392505050565b5f6020828403121561464b575f80fd5b81356107b281614383565b5f8060408385031215614667575f80fd5b50508035926020909101359150565b602080825282518282018190525f918401906040840190835b818110156146ad57835183526020938401939092019160010161468f565b509095945050505050565b5f80602083850312156146c9575f80fd5b82356001600160401b038111156146de575f80fd5b6146ea85828601614593565b90969095509350505050565b602081525f82518060208401528060208501604085015e5f604082850101526040601f19601f83011684010191505092915050565b5f8060c0838503121561473c575f80fd5b61474684846144fe565b915061475460a084016144db565b90509250929050565b80358015158114610a41575f80fd5b5f806040838503121561477d575f80fd5b823561478881614383565b91506147546020840161475d565b5f805f808486036101408112156147ab575f80fd5b6147b587876144fe565b94506080609f19820112156147c8575f80fd5b506147d1614483565b6147dd60a087016144ed565b81526147eb60c087016144ed565b602082015260e08601356040820152610100860135606082015292506101208501356001600160401b03811115614820575f80fd5b61482c87828801614593565b95989497509550505050565b5f805f8060e0858703121561484b575f80fd5b61485586866144fe565b935060a085013561486581614383565b925060c08501356001600160401b03811115614820575f80fd5b5f8060208385031215614890575f80fd5b82356001600160401b038111156148a5575f80fd5b8301601f810185136148b5575f80fd5b80356001600160401b038111156148ca575f80fd5b8560208260051b84010111156148de575f80fd5b6020919091019590945092505050565b5f80604083850312156148ff575f80fd5b823561490a81614383565b9150602083013561491a81614383565b809150509250929050565b5f805f8084860361012081121561493a575f80fd5b61494487876144fe565b94506060609f1982011215614957575f80fd5b50604051606081016001600160401b038111828210171561497a5761497a61446f565b60405261498960a0870161475d565b815260c0860135602082015260e08601356149a381614383565b604082015292506101008501356001600160401b03811115614820575f80fd5b5f805f80608085870312156149d6575f80fd5b84356149e181614383565b935060208501356149f181614383565b93969395505050506040820135916060013590565b634e487b7160e01b5f52601160045260245ffd5b8181038181111561070c5761070c614a06565b8082018082111561070c5761070c614a06565b81835281816020850137505f828201602090810191909152601f909101601f19169091010190565b602081525f6115ab602083018486614a40565b5f60208284031215614a8b575f80fd5b81516001600160401b03811115614aa0575f80fd5b8201601f81018413614ab0575f80fd5b80516001600160401b03811115614ac957614ac961446f565b614adc601f8201601f19166020016144ab565b818152856020838501011115614af0575f80fd5b8160208401602083015e5f91810160200191909152949350505050565b5f81600f0b60016001607f1b03198103614b2957614b29614a06565b5f0392915050565b80516001600160a01b03908116835260208083015182169084015260408083015162ffffff169084015260608083015160020b9084015260809182015116910152565b6001600160a01b0387168152614b8d6020820187614b31565b8460c08201528360e08201526101206101008201525f614bb261012083018486614a40565b98975050505050505050565b6001600160a01b0386168152614bd76020820186614b31565b8351600290810b60c08301526020850151900b60e0820152604084015161010082015260608401516101208201526101606101408201525f613c9261016083018486614a40565b6001600160a01b0387168152614c376020820187614b31565b8451600290810b60c08301526020860151900b60e082015260408501516101008201526060850151610120820152836101408201526101806101608201525f614bb261018083018486614a40565b6001600160a01b0386168152614c9e6020820186614b31565b6001600160a01b03841660c082015261010060e082018190525f90613c929083018486614a40565b60a0810161070c8284614b31565b6001600160a01b0387168152614ced6020820187614b31565b60018060a01b03851660c08201528360020b60e08201526101206101008201525f614bb261012083018486614a40565b5f60208284031215614d2d575f80fd5b5051919050565b6001600160a01b0386168152614d4d6020820186614b31565b8351151560c0820152602084015160e082015260408401516001600160a01b03166101008201526101406101208201525f613c9261014083018486614a40565b8082018281125f831280158216821582161715614dac57614dac614a06565b505092915050565b6001600160a01b0387168152614dcd6020820187614b31565b8451151560c0820152602085015160e082015260408501516001600160a01b0316610100820152836101208201526101606101408201525f614bb261016083018486614a40565b600f81810b9083900b0160016001607f1b03811360016001607f1b03198212171561070c5761070c614a06565b600f82810b9082900b0360016001607f1b0319811260016001607f1b038213171561070c5761070c614a06565b8181035f831280158383131683831282161715612a3957612a39614a06565b634e487b7160e01b5f52601260045260245ffd5b5f82614ebb57634e487b7160e01b5f52601260045260245ffd5b50049056fe27e098c505d44ec3574004bca052aabf76bd35004c182099d8c575fb238593b91b3d7edb2e9c0b0e7c525b20aaaef0f5940d2ed71663c7d39266ecafac728859c090fc4683624cfc3884e9d8de5eca132f2d0ec062aff75d43c0465d5ceeab237d4b3164c6e45b97e7d87b7125a44c5828d005af88f9d751cfd78729c5d99a0ba2646970667358221220c720af38850bace8901ec0c414e9cc6b7600fdc66c58c62bb119ab202e9502fe64736f6c634300081a003360a0604052348015600e575f80fd5b506040516116ad3803806116ad833981016040819052602b91603b565b6001600160a01b03166080526066565b5f60208284031215604a575f80fd5b81516001600160a01b0381168114605f575f80fd5b9392505050565b6080516115e46100c95f395f818160790152818160f50152818161022d01528181610294015281816102c501528181610390015281816104fa01528181610550015281816105bf015281816106100152818161077a01526107ad01526115e45ff3fe60806040526004361061003e575f3560e01c80630a5b11e414610042578063481c6a75146100685780635a6bcfda146100b357806391dd7346146100c6575b5f80fd5b610055610050366004611035565b6100f2565b6040519081526020015b60405180910390f35b348015610073575f80fd5b5061009b7f000000000000000000000000000000000000000000000000000000000000000081565b6040516001600160a01b03909116815260200161005f565b6100556100c13660046110bb565b61020a565b3480156100d1575f80fd5b506100e56100e0366004611118565b610220565b60405161005f91906111b2565b5f7f00000000000000000000000000000000000000000000000000000000000000006001600160a01b03166348c894916040518060c00160405280336001600160a01b03168152602001898152602001888152602001878152602001861515815260200185151581525060405160200161016c919061120e565b6040516020818303038152906040526040518263ffffffff1660e01b815260040161019791906111b2565b5f604051808303815f875af11580156101b2573d5f803e3d5ffd5b505050506040513d5f823e601f3d908101601f191682016040526101d991908101906112aa565b8060200190518101906101ec919061131e565b9050478015610200576102005f3383610662565b5095945050505050565b5f6102188484845f806100f2565b949350505050565b6060336001600160a01b037f00000000000000000000000000000000000000000000000000000000000000001614610256575f80fd5b5f61026383850185611335565b90505f6102be610278836020015160a0902090565b6040840151805160208201516060909201516001600160a01b037f00000000000000000000000000000000000000000000000000000000000000001693923092916106fc565b505090505f7f00000000000000000000000000000000000000000000000000000000000000006001600160a01b0316635a6bcfda8460200151856040015186606001516040518463ffffffff1660e01b815260040161031f939291906113fc565b60408051808303815f875af115801561033a573d5f803e3d5ffd5b505050506040513d601f19601f8201168201806040525081019061035e919061144b565b5090505f6103ba610374856020015160a0902090565b6040860151805160208201516060909201516001600160a01b037f00000000000000000000000000000000000000000000000000000000000000001693923092916106fc565b505090505f6103d485602001515f0151865f015130610753565b925050505f6103ef866020015160200151875f015130610753565b9250505082600f0b86604001516040015186600f0b61040e9190611481565b1461045f5760405162461bcd60e51b815260206004820152601a60248201527f6c6971756964697479206368616e676520696e636f7272656374000000000000604482015260640160405180910390fd5b5f86604001516040015112156104a7575f82138061047c57505f81135b610488576104886114a8565b5f82128061049557505f81125b156104a2576104a26114a8565b6104ea565b5f86604001516040015113156104ea575f8212806104c457505f81125b6104d0576104d06114a8565b5f8213806104dd57505f81135b156104ea576104ea6114a8565b5f821215610540578551610540907f000000000000000000000000000000000000000000000000000000000000000090610523856114bc565b60808a015160208b0151516001600160a01b0316939291906107df565b5f811215610598578551610598907f000000000000000000000000000000000000000000000000000000000000000090610579846114bc565b60808a01516020808c015101516001600160a01b0316939291906107df565b5f8213156105e757855160a08701516020880151516105e7926001600160a01b03909116917f000000000000000000000000000000000000000000000000000000000000000091908690610aab565b5f81131561063857855160a08701516020808901510151610638926001600160a01b03909116917f000000000000000000000000000000000000000000000000000000000000000091908590610aab565b60408051602081018690520160405160208183030381529060405296505050505050505b92915050565b5f6001600160a01b038416610695575f805f8085875af1905080610690576106906356cdd02560e11b610b7d565b6106f6565b60405163a9059cbb60e01b81526001600160a01b038416600482015282602482015260205f6044835f895af13d15601f3d1160015f511416171691505f81525f60208201525f604082015250806106f6576106f6632745a14f60e21b610b7d565b50505050565b60408051602681018390526006810184905260038101859052858152603a600c8201205f9282018390526020820183905290829052819081906107408a8a83610baa565b919c909b50909950975050505050505050565b5f80806107696001600160a01b03871686610c4d565b925061079e6001600160a01b0387167f0000000000000000000000000000000000000000000000000000000000000000610c4d565b91506107d46001600160a01b037f0000000000000000000000000000000000000000000000000000000000000000168588610cdc565b905093509350939050565b801561087457836001600160a01b031663f5298aca8461080e886001600160a01b03166001600160a01b031690565b6040516001600160e01b031960e085901b1681526001600160a01b0390921660048301526024820152604481018590526064015b5f604051808303815f87803b158015610859575f80fd5b505af115801561086b573d5f803e3d5ffd5b50505050610aa4565b6001600160a01b0385166108eb57836001600160a01b03166311da60b4836040518263ffffffff1660e01b815260040160206040518083038185885af11580156108c0573d5f803e3d5ffd5b50505050506040513d601f19601f820116820180604052508101906108e5919061131e565b50610aa4565b604051632961046560e21b81526001600160a01b03868116600483015285169063a5841194906024015f604051808303815f87803b15801561092b575f80fd5b505af115801561093d573d5f803e3d5ffd5b505050506001600160a01b03831630146109cf576040516323b872dd60e01b81526001600160a01b0384811660048301528581166024830152604482018490528616906323b872dd906064016020604051808303815f875af11580156109a5573d5f803e3d5ffd5b505050506040513d601f19601f820116820180604052508101906109c991906114d6565b50610a41565b60405163a9059cbb60e01b81526001600160a01b0385811660048301526024820184905286169063a9059cbb906044016020604051808303815f875af1158015610a1b573d5f803e3d5ffd5b505050506040513d601f19601f82011682018060405250810190610a3f91906114d6565b505b836001600160a01b03166311da60b46040518163ffffffff1660e01b81526004016020604051808303815f875af1158015610a7e573d5f803e3d5ffd5b505050506040513d601f19601f82011682018060405250810190610aa2919061131e565b505b5050505050565b80610aed57604051630b0d9c0960e01b81526001600160a01b038681166004830152848116602483015260448201849052851690630b0d9c0990606401610842565b836001600160a01b031663156e29f684610b16886001600160a01b03166001600160a01b031690565b6040516001600160e01b031960e085901b1681526001600160a01b0390921660048301526024820152604481018590526064015f604051808303815f87803b158015610b60575f80fd5b505af1158015610b72573d5f803e3d5ffd5b505050505050505050565b3d60405182815260206004820152816024820152815f604483013e602080601f8401040260440191508181fd5b5f805f80610bb88686610d73565b604051631afeb18d60e11b815260048101829052600360248201529091505f906001600160a01b038916906335fd631a906044015f60405180830381865afa158015610c06573d5f803e3d5ffd5b505050506040513d5f823e601f3d908101601f19168201604052610c2d91908101906114f1565b60208101516040820151606090920151909a919950975095505050505050565b5f6001600160a01b038316610c6d57506001600160a01b0381163161065c565b6040516370a0823160e01b81526001600160a01b0383811660048301528416906370a0823190602401602060405180830381865afa158015610cb1573d5f803e3d5ffd5b505050506040513d601f19601f82011682018060405250810190610cd5919061131e565b905061065c565b5f806001600160a01b0384165f526001600160a01b03831660205260405f209050846001600160a01b031663f135baaa826040518263ffffffff1660e01b8152600401610d2b91815260200190565b602060405180830381865afa158015610d46573d5f803e3d5ffd5b505050506040513d601f19601f82011682018060405250810190610d6a919061131e565b95945050505050565b5f80610d7e84610dc3565b90505f610d8c60068361159b565b6040805160208101879052908101829052909150606001604051602081830303815290604052805190602001209250505092915050565b6040515f90610de2908390600690602001918252602082015260400190565b604051602081830303815290604052805190602001209050919050565b634e487b7160e01b5f52604160045260245ffd5b60405160c081016001600160401b0381118282101715610e3557610e35610dff565b60405290565b604051601f8201601f191681016001600160401b0381118282101715610e6357610e63610dff565b604052919050565b6001600160a01b0381168114610e7f575f80fd5b50565b8035600281900b8114610e93575f80fd5b919050565b5f60a08284031215610ea8575f80fd5b60405160a081016001600160401b0381118282101715610eca57610eca610dff565b6040529050808235610edb81610e6b565b81526020830135610eeb81610e6b565b6020820152604083013562ffffff81168114610f05575f80fd5b6040820152610f1660608401610e82565b60608201526080830135610f2981610e6b565b6080919091015292915050565b5f60808284031215610f46575f80fd5b604051608081016001600160401b0381118282101715610f6857610f68610dff565b604052905080610f7783610e82565b8152610f8560208401610e82565b602082015260408301356040820152606083013560608201525092915050565b5f6001600160401b03821115610fbd57610fbd610dff565b50601f01601f191660200190565b5f82601f830112610fda575f80fd5b8135610fed610fe882610fa5565b610e3b565b818152846020838601011115611001575f80fd5b816020850160208301375f918101602001919091529392505050565b8015158114610e7f575f80fd5b8035610e938161101d565b5f805f805f610180868803121561104a575f80fd5b6110548787610e98565b94506110638760a08801610f36565b93506101208601356001600160401b0381111561107e575f80fd5b61108a88828901610fcb565b93505061014086013561109c8161101d565b91506101608601356110ad8161101d565b809150509295509295909350565b5f805f61014084860312156110ce575f80fd5b6110d88585610e98565b92506110e78560a08601610f36565b91506101208401356001600160401b03811115611102575f80fd5b61110e86828701610fcb565b9150509250925092565b5f8060208385031215611129575f80fd5b82356001600160401b0381111561113e575f80fd5b8301601f8101851361114e575f80fd5b80356001600160401b03811115611163575f80fd5b856020828401011115611174575f80fd5b6020919091019590945092505050565b5f81518084528060208401602086015e5f602082860101526020601f19601f83011685010191505092915050565b602081525f6111c46020830184611184565b9392505050565b80516001600160a01b03908116835260208083015182169084015260408083015162ffffff169084015260608083015160020b9084015260809182015116910152565b602080825282516001600160a01b0316828201528201515f9061123460408401826111cb565b506040838101518051600290810b60e08601526020820151900b610100850152908101516101208401526060908101516101408401528301516101a06101608401526112846101c0840182611184565b90506080840151151561018084015260a084015115156101a08401528091505092915050565b5f602082840312156112ba575f80fd5b81516001600160401b038111156112cf575f80fd5b8201601f810184136112df575f80fd5b80516112ed610fe882610fa5565b818152856020838501011115611301575f80fd5b8160208401602083015e5f91810160200191909152949350505050565b5f6020828403121561132e575f80fd5b5051919050565b5f60208284031215611345575f80fd5b81356001600160401b0381111561135a575f80fd5b82016101a0818503121561136c575f80fd5b611374610e13565b813561137f81610e6b565b815261138e8560208401610e98565b60208201526113a08560c08401610f36565b60408201526101408201356001600160401b038111156113be575f80fd5b6113ca86828501610fcb565b6060830152506113dd610160830161102a565b60808201526113ef610180830161102a565b60a0820152949350505050565b61140681856111cb565b8251600290810b60a08301526020840151900b60c0820152604083015160e082015260608301516101008201526101406101208201525f610d6a610140830184611184565b5f806040838503121561145c575f80fd5b505080516020909101519092909150565b634e487b7160e01b5f52601160045260245ffd5b8082018281125f8312801582168215821617156114a0576114a061146d565b505092915050565b634e487b7160e01b5f52600160045260245ffd5b5f600160ff1b82016114d0576114d061146d565b505f0390565b5f602082840312156114e6575f80fd5b81516111c48161101d565b5f60208284031215611501575f80fd5b81516001600160401b03811115611516575f80fd5b8201601f81018413611526575f80fd5b80516001600160401b0381111561153f5761153f610dff565b8060051b61154f60208201610e3b565b9182526020818401810192908101908784111561156a575f80fd5b6020850194505b8385101561159057845180835260209586019590935090910190611571565b979650505050505050565b8082018082111561065c5761065c61146d56fea2646970667358221220022bb587431beddd1b3a2d4e57eee388a80ee14cf23bcb0c201ec0029fc9cb7a64736f6c634300081a003360e060405234801561000f575f80fd5b50604051610eea380380610eea83398101604081905261002e916101a1565b8282825f61003c84826102a2565b50600161004983826102a2565b5060ff81166080524660a05261005d61006c565b60c052506103cd945050505050565b5f7f8b73c3c69bb8fe3d512ecc4cf759cc79239f7b179b0ffacaa9a75d522b39400f5f60405161009c919061035c565b6040805191829003822060208301939093528101919091527fc89efdaa54c0f20c7adf612882df0950f5a951637e0307cdcb4c672f298b8bc660608201524660808201523060a082015260c00160405160208183030381529060405280519060200120905090565b634e487b7160e01b5f52604160045260245ffd5b5f82601f830112610127575f80fd5b81516001600160401b0381111561014057610140610104565b604051601f8201601f19908116603f011681016001600160401b038111828210171561016e5761016e610104565b604052818152838201602001851015610185575f80fd5b8160208501602083015e5f918101602001919091529392505050565b5f805f606084860312156101b3575f80fd5b83516001600160401b038111156101c8575f80fd5b6101d486828701610118565b602086015190945090506001600160401b038111156101f1575f80fd5b6101fd86828701610118565b925050604084015160ff81168114610213575f80fd5b809150509250925092565b600181811c9082168061023257607f821691505b60208210810361025057634e487b7160e01b5f52602260045260245ffd5b50919050565b601f82111561029d57805f5260205f20601f840160051c8101602085101561027b5750805b601f840160051c820191505b8181101561029a575f8155600101610287565b50505b505050565b81516001600160401b038111156102bb576102bb610104565b6102cf816102c9845461021e565b84610256565b6020601f821160018114610301575f83156102ea5750848201515b5f19600385901b1c1916600184901b17845561029a565b5f84815260208120601f198516915b828110156103305787850151825560209485019460019092019101610310565b508482101561034d57868401515f19600387901b60f8161c191681555b50505050600190811b01905550565b5f8083546103698161021e565b6001821680156103805760018114610395576103c2565b60ff19831686528115158202860193506103c2565b865f5260205f205f5b838110156103ba5781548882015260019091019060200161039e565b505081860193505b509195945050505050565b60805160a05160c051610af36103f75f395f61044201525f61040d01525f61013f0152610af35ff3fe608060405234801561000f575f80fd5b50600436106100cb575f3560e01c806340c10f191161008857806395d89b411161006357806395d89b41146101cc578063a9059cbb146101d4578063d505accf146101e7578063dd62ed3e146101fc575f80fd5b806340c10f191461017b57806370a082311461018e5780637ecebe00146101ad575f80fd5b806306fdde03146100cf578063095ea7b3146100ed57806318160ddd1461011057806323b872dd14610127578063313ce5671461013a5780633644e51514610173575b5f80fd5b6100d7610226565b6040516100e4919061083f565b60405180910390f35b6101006100fb36600461088f565b6102b1565b60405190151581526020016100e4565b61011960025481565b6040519081526020016100e4565b6101006101353660046108b7565b61031d565b6101617f000000000000000000000000000000000000000000000000000000000000000081565b60405160ff90911681526020016100e4565b61011961040a565b61010061018936600461088f565b610464565b61011961019c3660046108f1565b60036020525f908152604090205481565b6101196101bb3660046108f1565b60056020525f908152604090205481565b6100d7610478565b6101006101e236600461088f565b610485565b6101fa6101f5366004610911565b6104fb565b005b61011961020a36600461097e565b600460209081525f928352604080842090915290825290205481565b5f8054610232906109af565b80601f016020809104026020016040519081016040528092919081815260200182805461025e906109af565b80156102a95780601f10610280576101008083540402835291602001916102a9565b820191905f5260205f20905b81548152906001019060200180831161028c57829003601f168201915b505050505081565b335f8181526004602090815260408083206001600160a01b038716808552925280832085905551919290917f8c5be1e5ebec7d5bd14f71427d1e84f3dd0314c0f7b2291e5b200ac8c7c3b9259061030b9086815260200190565b60405180910390a35060015b92915050565b6001600160a01b0383165f9081526004602090815260408083203384529091528120545f1981146103765761035283826109fb565b6001600160a01b0386165f9081526004602090815260408083203384529091529020555b6001600160a01b0385165f908152600360205260408120805485929061039d9084906109fb565b90915550506001600160a01b038085165f81815260036020526040908190208054870190555190918716907fddf252ad1be2c89b69c2b068fc378daa952ba7f163c4a11628f55a4df523b3ef906103f79087815260200190565b60405180910390a3506001949350505050565b5f7f0000000000000000000000000000000000000000000000000000000000000000461461043f5761043a61073e565b905090565b507f000000000000000000000000000000000000000000000000000000000000000090565b5f61046f83836107d6565b50600192915050565b60018054610232906109af565b335f908152600360205260408120805483919083906104a59084906109fb565b90915550506001600160a01b0383165f81815260036020526040908190208054850190555133907fddf252ad1be2c89b69c2b068fc378daa952ba7f163c4a11628f55a4df523b3ef9061030b9086815260200190565b428410156105505760405162461bcd60e51b815260206004820152601760248201527f5045524d49545f444541444c494e455f4558504952454400000000000000000060448201526064015b60405180910390fd5b5f600161055b61040a565b6001600160a01b038a81165f8181526005602090815260409182902080546001810190915582517f6e71edae12b1b97f4d1f60370fef10105fa2faae0126114a169c64845d6126c98184015280840194909452938d166060840152608083018c905260a083019390935260c08083018b90528151808403909101815260e08301909152805192019190912061190160f01b6101008301526101028201929092526101228101919091526101420160408051601f1981840301815282825280516020918201205f84529083018083525260ff871690820152606081018590526080810184905260a0016020604051602081039080840390855afa158015610663573d5f803e3d5ffd5b5050604051601f1901519150506001600160a01b038116158015906106995750876001600160a01b0316816001600160a01b0316145b6106d65760405162461bcd60e51b815260206004820152600e60248201526d24a72b20a624a22fa9a4a3a722a960911b6044820152606401610547565b6001600160a01b039081165f9081526004602090815260408083208a8516808552908352928190208990555188815291928a16917f8c5be1e5ebec7d5bd14f71427d1e84f3dd0314c0f7b2291e5b200ac8c7c3b925910160405180910390a350505050505050565b5f7f8b73c3c69bb8fe3d512ecc4cf759cc79239f7b179b0ffacaa9a75d522b39400f5f60405161076e9190610a0e565b6040805191829003822060208301939093528101919091527fc89efdaa54c0f20c7adf612882df0950f5a951637e0307cdcb4c672f298b8bc660608201524660808201523060a082015260c00160405160208183030381529060405280519060200120905090565b8060025f8282546107e79190610aaa565b90915550506001600160a01b0382165f818152600360209081526040808320805486019055518481527fddf252ad1be2c89b69c2b068fc378daa952ba7f163c4a11628f55a4df523b3ef910160405180910390a35050565b602081525f82518060208401528060208501604085015e5f604082850101526040601f19601f83011684010191505092915050565b80356001600160a01b038116811461088a575f80fd5b919050565b5f80604083850312156108a0575f80fd5b6108a983610874565b946020939093013593505050565b5f805f606084860312156108c9575f80fd5b6108d284610874565b92506108e060208501610874565b929592945050506040919091013590565b5f60208284031215610901575f80fd5b61090a82610874565b9392505050565b5f805f805f805f60e0888a031215610927575f80fd5b61093088610874565b965061093e60208901610874565b95506040880135945060608801359350608088013560ff81168114610961575f80fd5b9699959850939692959460a0840135945060c09093013592915050565b5f806040838503121561098f575f80fd5b61099883610874565b91506109a660208401610874565b90509250929050565b600181811c908216806109c357607f821691505b6020821081036109e157634e487b7160e01b5f52602260045260245ffd5b50919050565b634e487b7160e01b5f52601160045260245ffd5b81810381811115610317576103176109e7565b5f8083545f8160011c90506001821680610a2957607f821691505b602082108103610a4757634e487b7160e01b5f52602260045260245ffd5b808015610a5b5760018114610a7057610a9e565b60ff1984168752821515830287019450610a9e565b5f888152602090205f5b84811015610a9657815489820152600190910190602001610a7a565b505082870194505b50929695505050505050565b80820180821115610317576103176109e756fea2646970667358221220f4620711d0f8649f80fed98a6eb335b7806c86e0ebaba0b9fa57daf20d6ed2f364736f6c634300081a0033","linkReferences":{}},"methodIdentifiers":{"addLiquidity(int256,int24,int24)":"06ba06fa","poolKey()":"182148ef","setPool(uint24,int24,address,uint160,bytes)":"6af57741"},"id":51}