{"abi":[{"type":"function","name":"POOLS_SLOT","inputs":[],"outputs":[{"name":"","type":"bytes32","internalType":"bytes32"}],"stateMutability":"view"},{"type":"function","name":"TICKS_OFFSET","inputs":[],"outputs":[{"name":"","type":"uint256","internalType":"uint256"}],"stateMutability":"view"},{"type":"function","name":"getSlot0","inputs":[{"name":"manager","type":"address","internalType":"contract IPoolManager"},{"name":"poolId","type":"bytes32","internalType":"PoolId"}],"outputs":[{"name":"sqrtPriceX96","type":"uint160","internalType":"uint160"},{"name":"tick","type":"int24","internalType":"int24"},{"name":"protocolFee","type":"uint24","internalType":"uint24"},{"name":"lpFee","type":"uint24","internalType":"uint24"}],"stateMutability":"view"},{"type":"function","name":"getTickInfo","inputs":[{"name":"manager","type":"address","internalType":"contract IPoolManager"},{"name":"poolId","type":"bytes32","internalType":"PoolId"},{"name":"tick","type":"int24","internalType":"int24"}],"outputs":[{"name":"liquidityGross","type":"uint128","internalType":"uint128"},{"name":"liquidityNet","type":"int128","internalType":"int128"},{"name":"feeGrowthOutside0X128","type":"uint256","internalType":"uint256"},{"name":"feeGrowthOutside1X128","type":"uint256","internalType":"uint256"}],"stateMutability":"view"},{"type":"function","name":"toId","inputs":[{"name":"poolKey","type":"tuple","internalType":"struct PoolKey","components":[{"name":"currency0","type":"address","internalType":"Currency"},{"name":"currency1","type":"address","internalType":"Currency"},{"name":"fee","type":"uint24","internalType":"uint24"},{"name":"tickSpacing","type":"int24","internalType":"int24"},{"name":"hooks","type":"address","internalType":"contract IHooks"}]}],"outputs":[{"name":"poolId","type":"bytes32","internalType":"PoolId"}],"stateMutability":"pure"}],"bytecode":{"object":"0x6080604052348015600f57600080fd5b506105c98061001f6000396000f3fe608060405234801561001057600080fd5b50600436106100575760003560e01c806332c961d91461005c57806357eb1da714610084578063769323e31461008c578063b08d3fe214610094578063e631bcbf146100d4575b600080fd5b61007161006a36600461039e565b60a0902090565b6040519081526020015b60405180910390f35b610071600681565b610071600481565b6100a76100a236600461043e565b61011f565b604080516001600160801b039095168552600f9390930b602085015291830152606082015260800161007b565b6100e76100e236600461047c565b6101dd565b604080516001600160a01b03909516855260029390930b602085015262ffffff9182169284019290925216606082015260800161007b565b60008060008060006101318787610295565b604051631afeb18d60e11b815260048101829052600360248201529091506000906001600160a01b038a16906335fd631a90604401600060405180830381865afa158015610183573d6000803e3d6000fd5b505050506040513d6000823e601f3d908101601f191682016040526101ab91908101906104a8565b602081015160408201516060909201516001600160801b0382169c60809290921d9b5091995090975095505050505050565b60008060008060006101ee866102eb565b604051631e2eaeaf60e01b8152600481018290529091506000906001600160a01b03891690631e2eaeaf90602401602060405180830381865afa158015610239573d6000803e3d6000fd5b505050506040513d601f19601f8201168201806040525081019061025d9190610559565b90506001600160a01b03811695508060a01c60020b945062ffffff8160b81c16935062ffffff8160d01c169250505092959194509250565b6000806102a1846102eb565b905060006102b0600483610572565b60408051600287900b602082015290810182905290915060600160405160208183030381529060405280519060200120925050505b92915050565b60405160009061030b908390600690602001918252602082015260400190565b604051602081830303815290604052805190602001209050919050565b634e487b7160e01b600052604160045260246000fd5b604051601f8201601f1916810167ffffffffffffffff8111828210171561036757610367610328565b604052919050565b6001600160a01b038116811461038457600080fd5b50565b8035600281900b811461039957600080fd5b919050565b600060a08284031280156103b157600080fd5b5060405160a0810167ffffffffffffffff811182821017156103d5576103d5610328565b60405282356103e38161036f565b815260208301356103f38161036f565b6020820152604083013562ffffff8116811461040e57600080fd5b604082015261041f60608401610387565b606082015260808301356104328161036f565b60808201529392505050565b60008060006060848603121561045357600080fd5b833561045e8161036f565b92506020840135915061047360408501610387565b90509250925092565b6000806040838503121561048f57600080fd5b823561049a8161036f565b946020939093013593505050565b6000602082840312156104ba57600080fd5b815167ffffffffffffffff8111156104d157600080fd5b8201601f810184136104e257600080fd5b805167ffffffffffffffff8111156104fc576104fc610328565b8060051b61050c6020820161033e565b9182526020818401810192908101908784111561052857600080fd5b6020850194505b8385101561054e5784518083526020958601959093509091019061052f565b979650505050505050565b60006020828403121561056b57600080fd5b5051919050565b808201808211156102e557634e487b7160e01b600052601160045260246000fdfea26469706673582212206cda2f5debfef0eb5b0a90537a2fc11f4d074cfbee990c256493c4fbe0ba3b0364736f6c634300081a0033","linkReferences":{}},"methodIdentifiers":{"POOLS_SLOT()":"57eb1da7","TICKS_OFFSET()":"769323e3","getSlot0(address,bytes32)":"e631bcbf","getTickInfo(address,bytes32,int24)":"b08d3fe2","toId((address,address,uint24,int24,address))":"32c961d9"},"id":19}