{"abi":[{"type":"constructor","inputs":[{"name":"arenaTokenX_","type":"address","internalType":"address"},{"name":"arenaTokenY_","type":"address","internalType":"address"},{"name":"price_","type":"uint256","internalType":"uint256"}],"stateMutability":"nonpayable"},{"type":"function","name":"arenaTokenX","inputs":[],"outputs":[{"name":"","type":"address","internalType":"address"}],"stateMutability":"view"},{"type":"function","name":"arenaTokenY","inputs":[],"outputs":[{"name":"","type":"address","internalType":"address"}],"stateMutability":"view"},{"type":"function","name":"price","inputs":[],"outputs":[{"name":"","type":"uint256","internalType":"uint256"}],"stateMutability":"view"},{"type":"function","name":"setPrice","inputs":[{"name":"_price","type":"uint256","internalType":"uint256"}],"outputs":[],"stateMutability":"nonpayable"},{"type":"function","name":"swap","inputs":[{"name":"tokenIn","type":"address","internalType":"address"},{"name":"amountIn","type":"uint256","internalType":"uint256"}],"outputs":[],"stateMutability":"nonpayable"},{"type":"event","name":"PriceChange","inputs":[{"name":"price","type":"uint256","indexed":false,"internalType":"uint256"}],"anonymous":false},{"type":"event","name":"Swap","inputs":[{"name":"tokenIn","type":"address","indexed":false,"internalType":"address"},{"name":"tokenOut","type":"address","indexed":false,"internalType":"address"},{"name":"amountIn","type":"uint256","indexed":false,"internalType":"uint256"},{"name":"amountOut","type":"uint256","indexed":false,"internalType":"uint256"},{"name":"to","type":"address","indexed":false,"internalType":"address"}],"anonymous":false}],"bytecode":{"object":"0x6080604052348015600f57600080fd5b50604051610542380380610542833981016040819052602c91607e565b600080546001600160a01b039485166001600160a01b031991821617909155600180549390941692169190911790915560025560b5565b80516001600160a01b0381168114607957600080fd5b919050565b600080600060608486031215609257600080fd5b6099846063565b925060a5602085016063565b9150604084015190509250925092565b61047e806100c46000396000f3fe608060405234801561001057600080fd5b50600436106100575760003560e01c806358dbbe811461005c57806391b7f5ed1461008c578063a035b1fe146100a1578063d004f0f7146100b8578063f5992699146100cb575b600080fd5b60015461006f906001600160a01b031681565b6040516001600160a01b0390911681526020015b60405180910390f35b61009f61009a3660046103d5565b6100de565b005b6100aa60025481565b604051908152602001610083565b61009f6100c63660046103ee565b610119565b60005461006f906001600160a01b031681565b60028190556040518181527ff347ee99503bf19c028bd6b18f3c676e82a9bb5b2bb5225aebe0fd62fd6a0d199060200160405180910390a150565b6000805481906001600160a01b039081169085160361015757506001546002546001600160a01b039091169061015090849061038a565b91506101c8565b6001546001600160a01b039081169085160361018b57506000546002546001600160a01b03909116906101509084906103a6565b60405162461bcd60e51b815260206004820152600d60248201526c24b73b30b634b2103a37b5b2b760991b60448201526064015b60405180910390fd5b6040516323b872dd60e01b8152336004820152306024820152604481018490526001600160a01b038516906323b872dd906064016020604051808303816000875af115801561021b573d6000803e3d6000fd5b505050506040513d601f19601f8201168201806040525081019061023f9190610426565b61027d5760405162461bcd60e51b815260206004820152600f60248201526e151c985b9cd9995c8819985a5b1959608a1b60448201526064016101bf565b60405163a9059cbb60e01b8152336004820152602481018390526001600160a01b0382169063a9059cbb906044016020604051808303816000875af11580156102ca573d6000803e3d6000fd5b505050506040513d601f19601f820116820180604052508101906102ee9190610426565b61032c5760405162461bcd60e51b815260206004820152600f60248201526e151c985b9cd9995c8819985a5b1959608a1b60448201526064016101bf565b604080516001600160a01b03808716825283166020820152908101849052606081018390523360808201527fb39c9bc43f811e1a7ce159c5f147458fdb80266bf23c17322013316e27e086d09060a00160405180910390a150505050565b600061039f8383670de0b6b3a76400006103b7565b9392505050565b600061039f83670de0b6b3a7640000845b60008260001904841183021582026103ce57600080fd5b5091020490565b6000602082840312156103e757600080fd5b5035919050565b6000806040838503121561040157600080fd5b82356001600160a01b038116811461041857600080fd5b946020939093013593505050565b60006020828403121561043857600080fd5b8151801515811461039f57600080fdfea264697066735822122046949de5dd33fffb53ee34004519f8e0867392736ad6f958075fab6090afbbb264736f6c634300081a0033","linkReferences":{}},"methodIdentifiers":{"arenaTokenX()":"f5992699","arenaTokenY()":"58dbbe81","price()":"a035b1fe","setPrice(uint256)":"91b7f5ed","swap(address,uint256)":"d004f0f7"},"id":3}